{
  "contractName": "Counter",
  "abi": [
    {
      "inputs": [],
      "name": "addOne",
      "outputs": [],
      "stateMutability": "nonpayable",
      "type": "function"
    },
    {
      "inputs": [],
      "name": "substractOne",
      "outputs": [],
      "stateMutability": "nonpayable",
      "type": "function"
    },
    {
      "inputs": [],
      "name": "getCounter",
      "outputs": [
        {
          "internalType": "uint256",
          "name": "",
          "type": "uint256"
        }
      ],
      "stateMutability": "view",
      "type": "function",
      "constant": true
    }
  ],
  "bytecode": "0x608060405234801561001057600080fd5b506101bf806100206000396000f3fe608060405234801561001057600080fd5b50600436106100415760003560e01c80636057d3ee1461004657806388d73ebf146100505780638ada066e1461005a575b600080fd5b61004e610078565b005b610058610091565b005b6100626100aa565b60405161006f91906100cc565b60405180910390f35b60008081548092919061008a90610116565b9190505550565b6000808154809291906100a39061015f565b9190505550565b60008054905090565b6000819050919050565b6100c6816100b3565b82525050565b60006020820190506100e160008301846100bd565b92915050565b7f4e487b7100000000000000000000000000000000000000000000000000000000600052601160045260246000fd5b6000610121826100b3565b91507fffffffffffffffffffffffffffffffffffffffffffffffffffffffffffffffff821415610154576101536100e7565b5b600182019050919050565b600061016a826100b3565b9150600082141561017e5761017d6100e7565b5b60018203905091905056fea26469706673582212208638c392326c4915945b8be9f3f6e9e784e52908222c6181059d1422159e541d64736f6c63430008090033",
  "immutableReferences": {},
  "source": "pragma solidity ^0.8.9;\r\n\r\ncontract Counter {\r\n  uint256 counter;\r\n\r\n  function addOne() public {\r\n    counter++;\r\n  }\r\n\r\n  function substractOne() public {\r\n    counter--;\r\n  }\r\n\r\n  function getCounter() public view returns (uint256) {\r\n    return counter;\r\n  }\r\n}",
  "sourcePath": "E:\\Coding\\DevEther\\test\\contracts\\Counter.sol",
  "compiler": {
    "name": "solc",
    "version": "0.8.9+commit.e5eed63a.Emscripten.clang"
  },
  "schemaVersion": "3.4.3",
  "updatedAt": "2021-11-14T03:40:40.969Z",
  "networkType": "ethereum",
  "devdoc": {
    "kind": "dev",
    "methods": {},
    "version": 1
  },
  "userdoc": {
    "kind": "user",
    "methods": {},
    "version": 1
  }
}