{
  "contractName": "StoreInArray",
  "abi": [
    {
      "inputs": [
        {
          "internalType": "uint256",
          "name": "x",
          "type": "uint256"
        }
      ],
      "name": "add",
      "outputs": [],
      "stateMutability": "nonpayable",
      "type": "function"
    },
    {
      "inputs": [],
      "name": "getAll",
      "outputs": [
        {
          "internalType": "uint256[]",
          "name": "",
          "type": "uint256[]"
        }
      ],
      "stateMutability": "view",
      "type": "function",
      "constant": true
    }
  ],
  "bytecode": "0x608060405234801561001057600080fd5b50610277806100206000396000f3fe608060405234801561001057600080fd5b50600436106100365760003560e01c80631003e2d21461003b57806353ed514314610057575b600080fd5b61005560048036038101906100509190610134565b610075565b005b61005f6100a1565b60405161006c919061021f565b60405180910390f35b600081908060018154018082558091505060019003906000526020600020016000909190919091505550565b606060008054806020026020016040519081016040528092919081815260200182805480156100ef57602002820191906000526020600020905b8154815260200190600101908083116100db575b5050505050905090565b600080fd5b6000819050919050565b610111816100fe565b811461011c57600080fd5b50565b60008135905061012e81610108565b92915050565b60006020828403121561014a576101496100f9565b5b60006101588482850161011f565b91505092915050565b600081519050919050565b600082825260208201905092915050565b6000819050602082019050919050565b610196816100fe565b82525050565b60006101a8838361018d565b60208301905092915050565b6000602082019050919050565b60006101cc82610161565b6101d6818561016c565b93506101e18361017d565b8060005b838110156102125781516101f9888261019c565b9750610204836101b4565b9250506001810190506101e5565b5085935050505092915050565b6000602082019050818103600083015261023981846101c1565b90509291505056fea2646970667358221220f9d2b4386c3f95aad05d4b4841a8008cde0b727d984f9bbf405a156b219e410464736f6c63430008090033",
  "immutableReferences": {},
  "source": "pragma solidity ^0.8.9;\r\n\r\ncontract StoreInArray {\r\n  uint256[] store;\r\n\r\n  function add(uint256 x) public {\r\n    store.push(x);\r\n  }\r\n\r\n  function getAll() public view returns (uint256[] memory){\r\n    return store;\r\n  }\r\n  \r\n}",
  "sourcePath": "E:\\Coding\\DevEther\\test\\contracts\\StoreInArray.sol",
  "compiler": {
    "name": "solc",
    "version": "0.8.9+commit.e5eed63a.Emscripten.clang"
  },
  "schemaVersion": "3.4.3",
  "updatedAt": "2021-11-14T03:40:40.971Z",
  "networkType": "ethereum",
  "devdoc": {
    "kind": "dev",
    "methods": {},
    "version": 1
  },
  "userdoc": {
    "kind": "user",
    "methods": {},
    "version": 1
  }
}