{
  "contractName": "TestContract",
  "abi": [
    {
      "inputs": [
        {
          "internalType": "uint256",
          "name": "x",
          "type": "uint256"
        }
      ],
      "name": "double",
      "outputs": [
        {
          "internalType": "uint256",
          "name": "",
          "type": "uint256"
        }
      ],
      "stateMutability": "pure",
      "type": "function",
      "constant": true
    },
    {
      "inputs": [
        {
          "internalType": "uint256",
          "name": "num",
          "type": "uint256"
        }
      ],
      "name": "indexOf",
      "outputs": [
        {
          "internalType": "uint256",
          "name": "",
          "type": "uint256"
        }
      ],
      "stateMutability": "view",
      "type": "function",
      "constant": true
    }
  ],
  "bytecode": "0x60806040526040518060a00160405280600e60ff168152602001604460ff168152602001606360ff168152602001600660ff168152602001600460ff16815250600190600561004f929190610062565b5034801561005c57600080fd5b506100d1565b8280548282559060005260206000209081019282156100a3579160200282015b828111156100a2578251829060ff16905591602001919060010190610082565b5b5090506100b091906100b4565b5090565b5b808211156100cd5760008160009055506001016100b5565b5090565b610357806100e06000396000f3fe608060405234801561001057600080fd5b50600436106100365760003560e01c806391ac7e651461003b578063eee972061461006b575b600080fd5b61005560048036038101906100509190610169565b61009b565b60405161006291906101a5565b60405180910390f35b61008560048036038101906100809190610169565b6100fd565b60405161009291906101a5565b60405180910390f35b600080600090505b6001805490508110156100f257600181815481106100c4576100c36101c0565b5b90600052602060002001548314156100df57809150506100f8565b80806100ea9061021e565b9150506100a3565b50606390505b919050565b600081600060028261010f9190610296565b1461011957600080fd5b60028361012691906102c7565b915050919050565b600080fd5b6000819050919050565b61014681610133565b811461015157600080fd5b50565b6000813590506101638161013d565b92915050565b60006020828403121561017f5761017e61012e565b5b600061018d84828501610154565b91505092915050565b61019f81610133565b82525050565b60006020820190506101ba6000830184610196565b92915050565b7f4e487b7100000000000000000000000000000000000000000000000000000000600052603260045260246000fd5b7f4e487b7100000000000000000000000000000000000000000000000000000000600052601160045260246000fd5b600061022982610133565b91507fffffffffffffffffffffffffffffffffffffffffffffffffffffffffffffffff82141561025c5761025b6101ef565b5b600182019050919050565b7f4e487b7100000000000000000000000000000000000000000000000000000000600052601260045260246000fd5b60006102a182610133565b91506102ac83610133565b9250826102bc576102bb610267565b5b828206905092915050565b60006102d282610133565b91506102dd83610133565b9250817fffffffffffffffffffffffffffffffffffffffffffffffffffffffffffffffff0483118215151615610316576103156101ef565b5b82820290509291505056fea26469706673582212208346f22c7632698896445414392ef7513825dacb67bb34c8698dcd66f88608c564736f6c63430008090033",
  "immutableReferences": {},
  "source": "pragma solidity ^0.8.9;\r\n\r\ncontract TestContract {\r\n    uint testContract;\r\n    uint256[] randomNum = [14,68,99,6,4];\r\n\r\n    function double(uint x) public pure checkOdd(x) returns (uint) {\r\n      return x * 2;\r\n    }\r\n\r\n    modifier checkOdd(uint number) {\r\n      require(number % 2 == 0);\r\n      _;\r\n    }\r\n\r\n    function indexOf(uint256 num) public view returns (uint256) {\r\n      for (uint256 i = 0; i < randomNum.length; i++){\r\n        if (num == randomNum[i]){\r\n          return i;\r\n        }\r\n      }\r\n      return 99;\r\n    }\r\n    \r\n}",
  "sourcePath": "E:\\Coding\\DevEther\\test\\contracts\\TestContract.sol",
  "compiler": {
    "name": "solc",
    "version": "0.8.9+commit.e5eed63a.Emscripten.clang"
  },
  "schemaVersion": "3.4.3",
  "updatedAt": "2021-11-14T03:40:40.967Z",
  "networkType": "ethereum",
  "devdoc": {
    "kind": "dev",
    "methods": {},
    "version": 1
  },
  "userdoc": {
    "kind": "user",
    "methods": {},
    "version": 1
  }
}