{
  "contractName": "Will",
  "abi": [
    {
      "inputs": [],
      "stateMutability": "payable",
      "type": "constructor",
      "payable": true
    },
    {
      "inputs": [
        {
          "internalType": "address payable",
          "name": "wallet",
          "type": "address"
        },
        {
          "internalType": "uint256",
          "name": "amount",
          "type": "uint256"
        }
      ],
      "name": "setInheritance",
      "outputs": [],
      "stateMutability": "nonpayable",
      "type": "function"
    },
    {
      "inputs": [],
      "name": "deceased",
      "outputs": [],
      "stateMutability": "nonpayable",
      "type": "function"
    }
  ],
  "bytecode": "0x6080604052336000806101000a81548173ffffffffffffffffffffffffffffffffffffffff021916908373ffffffffffffffffffffffffffffffffffffffff160217905550346001819055506000600260006101000a81548160ff0219169083151502179055506104ad806100756000396000f3fe608060405234801561001057600080fd5b50600436106100365760003560e01c806372faf2d91461003b57806388d5159414610045575b600080fd5b610043610061565b005b61005f600480360381019061005a9190610390565b6100de565b005b60008054906101000a900473ffffffffffffffffffffffffffffffffffffffff1673ffffffffffffffffffffffffffffffffffffffff163373ffffffffffffffffffffffffffffffffffffffff16146100b957600080fd5b6001600260006101000a81548160ff0219169083151502179055506100dc6101e1565b565b60008054906101000a900473ffffffffffffffffffffffffffffffffffffffff1673ffffffffffffffffffffffffffffffffffffffff163373ffffffffffffffffffffffffffffffffffffffff161461013657600080fd5b6003829080600181540180825580915050600190039060005260206000200160009091909190916101000a81548173ffffffffffffffffffffffffffffffffffffffff021916908373ffffffffffffffffffffffffffffffffffffffff16021790555080600460008473ffffffffffffffffffffffffffffffffffffffff1673ffffffffffffffffffffffffffffffffffffffff168152602001908152602001600020819055505050565b60011515600260009054906101000a900460ff1615151461020157600080fd5b60005b6003805490508110156102f457600060038281548110610227576102266103d0565b5b9060005260206000200160009054906101000a900473ffffffffffffffffffffffffffffffffffffffff1690506000600460008373ffffffffffffffffffffffffffffffffffffffff1673ffffffffffffffffffffffffffffffffffffffff1681526020019081526020016000205490508173ffffffffffffffffffffffffffffffffffffffff166108fc829081150290604051600060405180830381858888f193505050501580156102de573d6000803e3d6000fd5b50505080806102ec9061042e565b915050610204565b50565b600080fd5b600073ffffffffffffffffffffffffffffffffffffffff82169050919050565b6000610327826102fc565b9050919050565b6103378161031c565b811461034257600080fd5b50565b6000813590506103548161032e565b92915050565b6000819050919050565b61036d8161035a565b811461037857600080fd5b50565b60008135905061038a81610364565b92915050565b600080604083850312156103a7576103a66102f7565b5b60006103b585828601610345565b92505060206103c68582860161037b565b9150509250929050565b7f4e487b7100000000000000000000000000000000000000000000000000000000600052603260045260246000fd5b7f4e487b7100000000000000000000000000000000000000000000000000000000600052601160045260246000fd5b60006104398261035a565b91507fffffffffffffffffffffffffffffffffffffffffffffffffffffffffffffffff82141561046c5761046b6103ff565b5b60018201905091905056fea26469706673582212205e0db74199b7175f01c41becd2ada683db48f74f3a0d6dea47582e7b488bee5f64736f6c63430008090033",
  "immutableReferences": {},
  "source": "pragma solidity ^0.8.9;\r\n\r\ncontract Will {\r\n    address owner;\r\n    uint fortune;\r\n    bool isDeceased;\r\n    \r\n    constructor() payable {\r\n        owner = msg.sender;\r\n        fortune = msg.value;\r\n        isDeceased = false;\r\n    }\r\n    \r\n    //modifier so the only person who can call the contract is the owner\r\n    modifier onlyOwner {\r\n        require(msg.sender == owner);\r\n        _;\r\n    }\r\n    \r\n    //modifier so that we only allocate funds if person die.\r\n    modifier mustBeDeceased {\r\n        require(isDeceased == true);\r\n        _;\r\n    }\r\n    \r\n    address payable [] familyWallets;\r\n    mapping(address => uint) inheritance;\r\n    \r\n    //set inheritance for each address\r\n    function setInheritance(address payable wallet, uint amount) public onlyOwner {\r\n        familyWallets.push(wallet);\r\n        inheritance[wallet] = amount;\r\n    }\r\n    \r\n    //pay each family member based on their wallet address\r\n    function payout() private mustBeDeceased {\r\n        for (uint i = 0; i < familyWallets.length; i++ ){\r\n            address payable familyAddress = familyWallets[i];\r\n            uint amount = inheritance[familyAddress];\r\n            \r\n            familyAddress.transfer(amount);\r\n        }\r\n    }\r\n    \r\n    // oracle switch simulation\r\n    function deceased() public onlyOwner {\r\n        isDeceased = true;\r\n        payout();\r\n    }\r\n}",
  "sourcePath": "E:\\Coding\\DevEther\\test\\contracts\\Will.sol",
  "compiler": {
    "name": "solc",
    "version": "0.8.9+commit.e5eed63a.Emscripten.clang"
  },
  "schemaVersion": "3.4.3",
  "updatedAt": "2021-11-21T14:52:12.684Z",
  "networkType": "ethereum",
  "devdoc": {
    "kind": "dev",
    "methods": {},
    "version": 1
  },
  "userdoc": {
    "kind": "user",
    "methods": {},
    "version": 1
  }
}